{
  "contractName": "SupplyChain",
  "abi": [
    {
      "inputs": [],
      "stateMutability": "payable",
      "type": "constructor"
    },
    {
      "anonymous": false,
      "inputs": [
        {
          "indexed": true,
          "internalType": "address",
          "name": "account",
          "type": "address"
        }
      ],
      "name": "ConsumerAdded",
      "type": "event"
    },
    {
      "anonymous": false,
      "inputs": [
        {
          "indexed": true,
          "internalType": "address",
          "name": "account",
          "type": "address"
        }
      ],
      "name": "ConsumerRemoved",
      "type": "event"
    },
    {
      "anonymous": false,
      "inputs": [
        {
          "indexed": false,
          "internalType": "uint256",
          "name": "fabricUpc",
          "type": "uint256"
        }
      ],
      "name": "FabricCertified",
      "type": "event"
    },
    {
      "anonymous": false,
      "inputs": [
        {
          "indexed": false,
          "internalType": "uint256",
          "name": "fabricUpc",
          "type": "uint256"
        }
      ],
      "name": "FabricCreated",
      "type": "event"
    },
    {
      "anonymous": false,
      "inputs": [
        {
          "indexed": false,
          "internalType": "uint256",
          "name": "fabricUpc",
          "type": "uint256"
        },
        {
          "indexed": false,
          "internalType": "uint256",
          "name": "yarnUpc",
          "type": "uint256"
        }
      ],
      "name": "FabricCutted",
      "type": "event"
    },
    {
      "anonymous": false,
      "inputs": [
        {
          "indexed": false,
          "internalType": "uint256",
          "name": "fabricUpc",
          "type": "uint256"
        }
      ],
      "name": "FabricForSale",
      "type": "event"
    },
    {
      "anonymous": false,
      "inputs": [
        {
          "indexed": false,
          "internalType": "uint256",
          "name": "fabricUpc",
          "type": "uint256"
        }
      ],
      "name": "FabricPacked",
      "type": "event"
    },
    {
      "anonymous": false,
      "inputs": [
        {
          "indexed": false,
          "internalType": "uint256",
          "name": "fabricUpc",
          "type": "uint256"
        }
      ],
      "name": "FabricProduced",
      "type": "event"
    },
    {
      "anonymous": false,
      "inputs": [
        {
          "indexed": false,
          "internalType": "uint256",
          "name": "fabricUpc",
          "type": "uint256"
        }
      ],
      "name": "FabricPurchased",
      "type": "event"
    },
    {
      "anonymous": false,
      "inputs": [
        {
          "indexed": true,
          "internalType": "address",
          "name": "account",
          "type": "address"
        }
      ],
      "name": "ProducerAdded",
      "type": "event"
    },
    {
      "anonymous": false,
      "inputs": [
        {
          "indexed": true,
          "internalType": "address",
          "name": "account",
          "type": "address"
        }
      ],
      "name": "ProducerRemoved",
      "type": "event"
    },
    {
      "anonymous": false,
      "inputs": [
        {
          "indexed": true,
          "internalType": "address",
          "name": "account",
          "type": "address"
        }
      ],
      "name": "QualityCheckerAdded",
      "type": "event"
    },
    {
      "anonymous": false,
      "inputs": [
        {
          "indexed": true,
          "internalType": "address",
          "name": "account",
          "type": "address"
        }
      ],
      "name": "QualityCheckerRemoved",
      "type": "event"
    },
    {
      "anonymous": false,
      "inputs": [
        {
          "indexed": true,
          "internalType": "address",
          "name": "account",
          "type": "address"
        }
      ],
      "name": "TextileAdded",
      "type": "event"
    },
    {
      "anonymous": false,
      "inputs": [
        {
          "indexed": true,
          "internalType": "address",
          "name": "account",
          "type": "address"
        }
      ],
      "name": "TextileRemoved",
      "type": "event"
    },
    {
      "anonymous": false,
      "inputs": [
        {
          "indexed": true,
          "internalType": "address",
          "name": "oldOwner",
          "type": "address"
        },
        {
          "indexed": true,
          "internalType": "address",
          "name": "newOwner",
          "type": "address"
        }
      ],
      "name": "TransferOwnership",
      "type": "event"
    },
    {
      "anonymous": false,
      "inputs": [
        {
          "indexed": false,
          "internalType": "uint256",
          "name": "yarnUpc",
          "type": "uint256"
        }
      ],
      "name": "YarnAcquired",
      "type": "event"
    },
    {
      "anonymous": false,
      "inputs": [
        {
          "indexed": false,
          "internalType": "uint256",
          "name": "yarnUpc",
          "type": "uint256"
        }
      ],
      "name": "YarnAudited",
      "type": "event"
    },
    {
      "anonymous": false,
      "inputs": [
        {
          "indexed": false,
          "internalType": "uint256",
          "name": "yarnUpc",
          "type": "uint256"
        }
      ],
      "name": "YarnPlanned",
      "type": "event"
    },
    {
      "anonymous": false,
      "inputs": [
        {
          "indexed": false,
          "internalType": "uint256",
          "name": "yarnUpc",
          "type": "uint256"
        }
      ],
      "name": "YarnProcessed",
      "type": "event"
    },
    {
      "inputs": [
        {
          "internalType": "address",
          "name": "account",
          "type": "address"
        }
      ],
      "name": "addConsumer",
      "outputs": [],
      "stateMutability": "nonpayable",
      "type": "function"
    },
    {
      "inputs": [
        {
          "internalType": "address",
          "name": "account",
          "type": "address"
        }
      ],
      "name": "addProducer",
      "outputs": [],
      "stateMutability": "nonpayable",
      "type": "function"
    },
    {
      "inputs": [
        {
          "internalType": "address",
          "name": "account",
          "type": "address"
        }
      ],
      "name": "addQualityChecker",
      "outputs": [],
      "stateMutability": "nonpayable",
      "type": "function"
    },
    {
      "inputs": [
        {
          "internalType": "address",
          "name": "account",
          "type": "address"
        }
      ],
      "name": "addTextile",
      "outputs": [],
      "stateMutability": "nonpayable",
      "type": "function"
    },
    {
      "inputs": [
        {
          "internalType": "address",
          "name": "account",
          "type": "address"
        }
      ],
      "name": "isConsumer",
      "outputs": [
        {
          "internalType": "bool",
          "name": "",
          "type": "bool"
        }
      ],
      "stateMutability": "view",
      "type": "function"
    },
    {
      "inputs": [],
      "name": "isOwner",
      "outputs": [
        {
          "internalType": "bool",
          "name": "",
          "type": "bool"
        }
      ],
      "stateMutability": "view",
      "type": "function"
    },
    {
      "inputs": [
        {
          "internalType": "address",
          "name": "account",
          "type": "address"
        }
      ],
      "name": "isProducer",
      "outputs": [
        {
          "internalType": "bool",
          "name": "",
          "type": "bool"
        }
      ],
      "stateMutability": "view",
      "type": "function"
    },
    {
      "inputs": [
        {
          "internalType": "address",
          "name": "account",
          "type": "address"
        }
      ],
      "name": "isQualityChecker",
      "outputs": [
        {
          "internalType": "bool",
          "name": "",
          "type": "bool"
        }
      ],
      "stateMutability": "view",
      "type": "function"
    },
    {
      "inputs": [
        {
          "internalType": "address",
          "name": "account",
          "type": "address"
        }
      ],
      "name": "isTextile",
      "outputs": [
        {
          "internalType": "bool",
          "name": "",
          "type": "bool"
        }
      ],
      "stateMutability": "view",
      "type": "function"
    },
    {
      "inputs": [],
      "name": "owner",
      "outputs": [
        {
          "internalType": "address",
          "name": "",
          "type": "address"
        }
      ],
      "stateMutability": "view",
      "type": "function"
    },
    {
      "inputs": [],
      "name": "renounceConsumer",
      "outputs": [],
      "stateMutability": "nonpayable",
      "type": "function"
    },
    {
      "inputs": [],
      "name": "renounceOwnership",
      "outputs": [],
      "stateMutability": "nonpayable",
      "type": "function"
    },
    {
      "inputs": [],
      "name": "renounceProducer",
      "outputs": [],
      "stateMutability": "nonpayable",
      "type": "function"
    },
    {
      "inputs": [],
      "name": "renounceQualityChecker",
      "outputs": [],
      "stateMutability": "nonpayable",
      "type": "function"
    },
    {
      "inputs": [],
      "name": "renounceTextile",
      "outputs": [],
      "stateMutability": "nonpayable",
      "type": "function"
    },
    {
      "inputs": [
        {
          "internalType": "address",
          "name": "newOwner",
          "type": "address"
        }
      ],
      "name": "transferOwnership",
      "outputs": [],
      "stateMutability": "nonpayable",
      "type": "function"
    },
    {
      "inputs": [],
      "name": "kill",
      "outputs": [],
      "stateMutability": "nonpayable",
      "type": "function"
    },
    {
      "inputs": [
        {
          "internalType": "uint256",
          "name": "_yarnUpc",
          "type": "uint256"
        },
        {
          "internalType": "address",
          "name": "_originTextileID",
          "type": "address"
        },
        {
          "internalType": "string",
          "name": "_originTextileName",
          "type": "string"
        },
        {
          "internalType": "string",
          "name": "_originTextileInformation",
          "type": "string"
        },
        {
          "internalType": "string",
          "name": "_originTextileLatitude",
          "type": "string"
        },
        {
          "internalType": "string",
          "name": "_originTextileLongitude",
          "type": "string"
        }
      ],
      "name": "yarnPlannedItem",
      "outputs": [],
      "stateMutability": "nonpayable",
      "type": "function"
    },
    {
      "inputs": [
        {
          "internalType": "uint256",
          "name": "_yarnUpc",
          "type": "uint256"
        },
        {
          "internalType": "string",
          "name": "_acquisitionNotes",
          "type": "string"
        }
      ],
      "name": "yarnAcquisitionItem",
      "outputs": [],
      "stateMutability": "nonpayable",
      "type": "function"
    },
    {
      "inputs": [
        {
          "internalType": "uint256",
          "name": "_yarnUpc",
          "type": "uint256"
        },
        {
          "internalType": "string",
          "name": "_auditNotes",
          "type": "string"
        }
      ],
      "name": "yarnAuditItem",
      "outputs": [],
      "stateMutability": "nonpayable",
      "type": "function"
    },
    {
      "inputs": [
        {
          "internalType": "uint256",
          "name": "_yarnUpc",
          "type": "uint256"
        }
      ],
      "name": "yarnProcessItem",
      "outputs": [],
      "stateMutability": "nonpayable",
      "type": "function"
    },
    {
      "inputs": [
        {
          "internalType": "uint256",
          "name": "_yarnUpc",
          "type": "uint256"
        },
        {
          "internalType": "uint256",
          "name": "_productID",
          "type": "uint256"
        }
      ],
      "name": "fabricCreateItem",
      "outputs": [],
      "stateMutability": "nonpayable",
      "type": "function"
    },
    {
      "inputs": [
        {
          "internalType": "uint256",
          "name": "_fabricUpc",
          "type": "uint256"
        },
        {
          "internalType": "uint256",
          "name": "_yarnUpc",
          "type": "uint256"
        }
      ],
      "name": "fabricCutItem",
      "outputs": [],
      "stateMutability": "nonpayable",
      "type": "function"
    },
    {
      "inputs": [
        {
          "internalType": "uint256",
          "name": "_fabricUpc",
          "type": "uint256"
        },
        {
          "internalType": "string",
          "name": "_productNotes",
          "type": "string"
        },
        {
          "internalType": "uint256",
          "name": "_productPrice",
          "type": "uint256"
        }
      ],
      "name": "fabricProduceItem",
      "outputs": [],
      "stateMutability": "nonpayable",
      "type": "function"
    },
    {
      "inputs": [
        {
          "internalType": "uint256",
          "name": "_fabricUpc",
          "type": "uint256"
        },
        {
          "internalType": "string",
          "name": "_certifyNotes",
          "type": "string"
        }
      ],
      "name": "fabricCertifyItem",
      "outputs": [],
      "stateMutability": "nonpayable",
      "type": "function"
    },
    {
      "inputs": [
        {
          "internalType": "uint256",
          "name": "_fabricUpc",
          "type": "uint256"
        }
      ],
      "name": "fabricPackItem",
      "outputs": [],
      "stateMutability": "nonpayable",
      "type": "function"
    },
    {
      "inputs": [
        {
          "internalType": "uint256",
          "name": "_fabricUpc",
          "type": "uint256"
        }
      ],
      "name": "fabricSellItem",
      "outputs": [],
      "stateMutability": "nonpayable",
      "type": "function"
    },
    {
      "inputs": [
        {
          "internalType": "uint256",
          "name": "_fabricUpc",
          "type": "uint256"
        }
      ],
      "name": "fabricBuyItem",
      "outputs": [],
      "stateMutability": "payable",
      "type": "function"
    },
    {
      "inputs": [
        {
          "internalType": "uint256",
          "name": "_fabricUpc",
          "type": "uint256"
        }
      ],
      "name": "fetchFabricItemBufferOne",
      "outputs": [
        {
          "internalType": "uint256",
          "name": "sku",
          "type": "uint256"
        },
        {
          "internalType": "uint256",
          "name": "upc",
          "type": "uint256"
        },
        {
          "internalType": "address",
          "name": "ownerID",
          "type": "address"
        },
        {
          "internalType": "uint256",
          "name": "productID",
          "type": "uint256"
        },
        {
          "internalType": "string",
          "name": "productNotes",
          "type": "string"
        },
        {
          "internalType": "uint256",
          "name": "productPrice",
          "type": "uint256"
        },
        {
          "internalType": "address",
          "name": "producerID",
          "type": "address"
        },
        {
          "internalType": "address",
          "name": "consumerID",
          "type": "address"
        },
        {
          "internalType": "string",
          "name": "certifyNotes",
          "type": "string"
        },
        {
          "internalType": "uint256[]",
          "name": "yarns",
          "type": "uint256[]"
        },
        {
          "internalType": "uint256",
          "name": "itemState",
          "type": "uint256"
        }
      ],
      "stateMutability": "view",
      "type": "function"
    },
    {
      "inputs": [
        {
          "internalType": "uint256",
          "name": "_yarnUpc",
          "type": "uint256"
        }
      ],
      "name": "fetchYarnItemBufferOne",
      "outputs": [
        {
          "internalType": "uint256",
          "name": "sku",
          "type": "uint256"
        },
        {
          "internalType": "uint256",
          "name": "upc",
          "type": "uint256"
        },
        {
          "internalType": "address",
          "name": "ownerID",
          "type": "address"
        },
        {
          "internalType": "address",
          "name": "originTextileID",
          "type": "address"
        },
        {
          "internalType": "string",
          "name": "originTextileName",
          "type": "string"
        },
        {
          "internalType": "string",
          "name": "originTextileInformation",
          "type": "string"
        },
        {
          "internalType": "string",
          "name": "originTextileLatitude",
          "type": "string"
        },
        {
          "internalType": "string",
          "name": "originTextileLongitude",
          "type": "string"
        }
      ],
      "stateMutability": "view",
      "type": "function"
    },
    {
      "inputs": [
        {
          "internalType": "uint256",
          "name": "_yarnUpc",
          "type": "uint256"
        }
      ],
      "name": "fetchYarnItemBufferTwo",
      "outputs": [
        {
          "internalType": "string",
          "name": "acquisitionNotes",
          "type": "string"
        },
        {
          "internalType": "string",
          "name": "auditNotes",
          "type": "string"
        },
        {
          "internalType": "uint256",
          "name": "itemState",
          "type": "uint256"
        }
      ],
      "stateMutability": "view",
      "type": "function"
    }
  ],
  "bytecode": "0x6080604052336000806101000a81548173ffffffffffffffffffffffffffffffffffffffff021916908373ffffffffffffffffffffffffffffffffffffffff16021790555060008054906101000a900473ffffffffffffffffffffffffffffffffffffffff1673ffffffffffffffffffffffffffffffffffffffff16600073ffffffffffffffffffffffffffffffffffffffff167f5c486528ec3e3f0ea91181cff8116f02bfa350e03b8b6f12e00765adbb5af85c60405160405180910390a3620000d0336200011160201b60201c565b620000e1336200017260201b60201c565b620000f233620001d360201b60201c565b62000103336200023460201b60201c565b60016005819055506200052d565b6200012c8160016200029560201b620027e81790919060201c565b8073ffffffffffffffffffffffffffffffffffffffff167f91bd74a5750e2b032dbc417f52481640b6b6fd8023f1b490d7155fbac0eace5360405160405180910390a250565b6200018d8160026200029560201b620027e81790919060201c565b8073ffffffffffffffffffffffffffffffffffffffff167f104cb9a9f6f722e54611e72d090b68cdaf67ecd247d1783a16b4bb7c9f45236560405160405180910390a250565b620001ee8160036200029560201b620027e81790919060201c565b8073ffffffffffffffffffffffffffffffffffffffff167f28b26e7a3d20aedbc5f8f2ebf7da671c0491723a2b78f47a097b0e46dee0714260405160405180910390a250565b6200024f8160046200029560201b620027e81790919060201c565b8073ffffffffffffffffffffffffffffffffffffffff167f2977383b0207d39ef14220620b6cf3e6c9b6e78592af90baeef6614ed2fcd2c660405160405180910390a250565b620002a782826200034860201b60201c565b15620002ea576040517f08c379a0000000000000000000000000000000000000000000000000000000008152600401620002e19062000473565b60405180910390fd5b60018260000160008373ffffffffffffffffffffffffffffffffffffffff1673ffffffffffffffffffffffffffffffffffffffff16815260200190815260200160002060006101000a81548160ff0219169083151502179055505050565b60008073ffffffffffffffffffffffffffffffffffffffff168273ffffffffffffffffffffffffffffffffffffffff1603620003bb576040517f08c379a0000000000000000000000000000000000000000000000000000000008152600401620003b2906200050b565b60405180910390fd5b8260000160008373ffffffffffffffffffffffffffffffffffffffff1673ffffffffffffffffffffffffffffffffffffffff16815260200190815260200160002060009054906101000a900460ff16905092915050565b600082825260208201905092915050565b7f526f6c65733a206163636f756e7420616c72656164792068617320726f6c6500600082015250565b60006200045b601f8362000412565b9150620004688262000423565b602082019050919050565b600060208201905081810360008301526200048e816200044c565b9050919050565b7f526f6c65733a206163636f756e7420697320746865207a65726f20616464726560008201527f7373000000000000000000000000000000000000000000000000000000000000602082015250565b6000620004f360228362000412565b9150620005008262000495565b604082019050919050565b600060208201905081810360008301526200052681620004e4565b9050919050565b614107806200053d6000396000f3fe6080604052600436106101d85760003560e01c80638da5cb5b11610102578063d660024811610095578063f532c1ac11610064578063f532c1ac14610654578063f552102214610693578063f9b867d8146106d0578063fa7159b6146106e7576101d8565b8063d6600248146105bd578063ddf80166146105d9578063e05dc2cd14610602578063f2fde38b1461062b576101d8565b8063b433f1fb116100d1578063b433f1fb146104fb578063b6a191f014610524578063c02980091461054d578063d33a088114610576576101d8565b80638da5cb5b146104535780638f32d59b1461047e578063a5fff107146104a9578063a64290c4146104d2576101d8565b80635001a0031161017a5780638200ae15116101495780638200ae15146103735780638272ef01146103b0578063834ff739146103d957806384e5d32114610416576101d8565b80635001a0031461030557806361e6982d1461031c5780636c22e00a14610333578063715018a61461035c576101d8565b80633ce302cc116101b65780633ce302cc1461025857806341c0e1b5146102815780634488d9b9146102985780634c888597146102dc576101d8565b8063112940f9146101dd5780633291f3101461020657806335bb05791461022f575b600080fd5b3480156101e957600080fd5b5061020460048036038101906101ff9190612e2c565b6106fe565b005b34801561021257600080fd5b5061022d60048036038101906102289190612ef4565b610752565b005b34801561023b57600080fd5b5061025660048036038101906102519190613004565b6109ab565b005b34801561026457600080fd5b5061027f600480360381019061027a9190612e2c565b610b9e565b005b34801561028d57600080fd5b50610296610bf2565b005b3480156102a457600080fd5b506102bf60048036038101906102ba9190613004565b610c23565b6040516102d39897969594939291906130df565b60405180910390f35b3480156102e857600080fd5b5061030360048036038101906102fe9190613179565b610f62565b005b34801561031157600080fd5b5061031a61112c565b005b34801561032857600080fd5b50610331611137565b005b34801561033f57600080fd5b5061035a60048036038101906103559190612e2c565b611142565b005b34801561036857600080fd5b50610371611196565b005b34801561037f57600080fd5b5061039a60048036038101906103959190612e2c565b611265565b6040516103a791906131f4565b60405180910390f35b3480156103bc57600080fd5b506103d760048036038101906103d29190613004565b611282565b005b3480156103e557600080fd5b5061040060048036038101906103fb9190612e2c565b6113cf565b60405161040d91906131f4565b60405180910390f35b34801561042257600080fd5b5061043d60048036038101906104389190612e2c565b6113ec565b60405161044a91906131f4565b60405180910390f35b34801561045f57600080fd5b50610468611409565b604051610475919061320f565b60405180910390f35b34801561048a57600080fd5b50610493611432565b6040516104a091906131f4565b60405180910390f35b3480156104b557600080fd5b506104d060048036038101906104cb919061322a565b611489565b005b3480156104de57600080fd5b506104f960048036038101906104f49190613179565b611608565b005b34801561050757600080fd5b50610522600480360381019061051d9190613004565b61177d565b005b34801561053057600080fd5b5061054b60048036038101906105469190613179565b61191f565b005b34801561055957600080fd5b50610574600480360381019061056f919061326a565b611a94565b005b34801561058257600080fd5b5061059d60048036038101906105989190613004565b611d20565b6040516105b49b9a9998979695949392919061339c565b60405180910390f35b6105d760048036038101906105d29190613004565b61202e565b005b3480156105e557600080fd5b5061060060048036038101906105fb9190612e2c565b6123c5565b005b34801561060e57600080fd5b506106296004803603810190610624919061322a565b612419565b005b34801561063757600080fd5b50610652600480360381019061064d9190612e2c565b612612565b005b34801561066057600080fd5b5061067b60048036038101906106769190613004565b61262f565b60405161068a9392919061345c565b60405180910390f35b34801561069f57600080fd5b506106ba60048036038101906106b59190612e2c565b6127b5565b6040516106c791906131f4565b60405180910390f35b3480156106dc57600080fd5b506106e56127d2565b005b3480156106f357600080fd5b506106fc6127dd565b005b610707336113cf565b610746576040517f08c379a000000000000000000000000000000000000000000000000000000000815260040161073d90613513565b60405180910390fd5b61074f81612890565b50565b61075b33611265565b61079a576040517f08c379a0000000000000000000000000000000000000000000000000000000008152600401610791906135a5565b60405180910390fd5b600554600660008c81526020019081526020016000206000018190555089600660008c81526020019081526020016000206001018190555033600660008c815260200190815260200160002060020160006101000a81548173ffffffffffffffffffffffffffffffffffffffff021916908373ffffffffffffffffffffffffffffffffffffffff16021790555088600660008c815260200190815260200160002060030160006101000a81548173ffffffffffffffffffffffffffffffffffffffff021916908373ffffffffffffffffffffffffffffffffffffffff1602179055508787600660008d815260200190815260200160002060040191826108a192919061380b565b508585600660008d815260200190815260200160002060050191826108c792919061380b565b508383600660008d815260200190815260200160002060060191826108ed92919061380b565b508181600660008d8152602001908152602001600020600701918261091392919061380b565b506000600660008c8152602001908152602001600020600a0160006101000a81548160ff0219169083600381111561094e5761094d6138db565b5b021790555060016005546109629190613939565b6005819055507fe04d4b2676cd5be8e47683476f4255fba51aba2e3f0330bff95f1bc6bc6286d48a604051610997919061396d565b60405180910390a150505050505050505050565b6109b4336127b5565b6109f3576040517f08c379a00000000000000000000000000000000000000000000000000000000081526004016109ea906139fa565b60405180910390fd5b6006600082815260200190815260200160002060020160009054906101000a900473ffffffffffffffffffffffffffffffffffffffff168073ffffffffffffffffffffffffffffffffffffffff163373ffffffffffffffffffffffffffffffffffffffff1614610a98576040517f08c379a0000000000000000000000000000000000000000000000000000000008152600401610a8f90613a66565b60405180910390fd5b8160036006811115610aad57610aac6138db565b5b6007600083815260200190815260200160002060090160009054906101000a900460ff166006811115610ae357610ae26138db565b5b14610b23576040517f08c379a0000000000000000000000000000000000000000000000000000000008152600401610b1a90613ad2565b60405180910390fd5b60046007600085815260200190815260200160002060090160006101000a81548160ff02191690836006811115610b5d57610b5c6138db565b5b02179055507f116a8b8c0318b8ecaa737ee6d2378324b6dae44196c7ea51cf19b60da52f871383604051610b91919061396d565b60405180910390a1505050565b610ba7336113ec565b610be6576040517f08c379a0000000000000000000000000000000000000000000000000000000008152600401610bdd90613b64565b60405180910390fd5b610bef816128ea565b50565b610bfa611432565b610c0357600080fd5b610c0b611409565b73ffffffffffffffffffffffffffffffffffffffff16ff5b600080600080606080606080600660008a8152602001908152602001600020600001549750600660008a8152602001908152602001600020600101549650600660008a815260200190815260200160002060020160009054906101000a900473ffffffffffffffffffffffffffffffffffffffff169550600660008a815260200190815260200160002060030160009054906101000a900473ffffffffffffffffffffffffffffffffffffffff169450600660008a81526020019081526020016000206004018054610cf49061362e565b80601f0160208091040260200160405190810160405280929190818152602001828054610d209061362e565b8015610d6d5780601f10610d4257610100808354040283529160200191610d6d565b820191906000526020600020905b815481529060010190602001808311610d5057829003601f168201915b50505050509350600660008a81526020019081526020016000206005018054610d959061362e565b80601f0160208091040260200160405190810160405280929190818152602001828054610dc19061362e565b8015610e0e5780601f10610de357610100808354040283529160200191610e0e565b820191906000526020600020905b815481529060010190602001808311610df157829003601f168201915b50505050509250600660008a81526020019081526020016000206006018054610e369061362e565b80601f0160208091040260200160405190810160405280929190818152602001828054610e629061362e565b8015610eaf5780601f10610e8457610100808354040283529160200191610eaf565b820191906000526020600020905b815481529060010190602001808311610e9257829003601f168201915b50505050509150600660008a81526020019081526020016000206007018054610ed79061362e565b80601f0160208091040260200160405190810160405280929190818152602001828054610f039061362e565b8015610f505780601f10610f2557610100808354040283529160200191610f50565b820191906000526020600020905b815481529060010190602001808311610f3357829003601f168201915b50505050509050919395975091939597565b610f6b33611265565b610faa576040517f08c379a0000000000000000000000000000000000000000000000000000000008152600401610fa1906135a5565b60405180910390fd5b8260006003811115610fbf57610fbe6138db565b5b60066000838152602001908152602001600020600a0160009054906101000a900460ff166003811115610ff557610ff46138db565b5b14611035576040517f08c379a000000000000000000000000000000000000000000000000000000000815260040161102c90613bd0565b60405180910390fd5b336006600086815260200190815260200160002060020160006101000a81548173ffffffffffffffffffffffffffffffffffffffff021916908373ffffffffffffffffffffffffffffffffffffffff16021790555082826006600087815260200190815260200160002060080191826110af92919061380b565b50600160066000868152602001908152602001600020600a0160006101000a81548160ff021916908360038111156110ea576110e96138db565b5b02179055507f5a425e43ecd7bf903efe18d0e59b576743dece7bd74d8eaad9330900ee7695868460405161111e919061396d565b60405180910390a150505050565b61113533612944565b565b6111403361299e565b565b61114b33611265565b61118a576040517f08c379a0000000000000000000000000000000000000000000000000000000008152600401611181906135a5565b60405180910390fd5b611193816129f8565b50565b61119e611432565b6111a757600080fd5b600073ffffffffffffffffffffffffffffffffffffffff1660008054906101000a900473ffffffffffffffffffffffffffffffffffffffff1673ffffffffffffffffffffffffffffffffffffffff167f5c486528ec3e3f0ea91181cff8116f02bfa350e03b8b6f12e00765adbb5af85c60405160405180910390a360008060006101000a81548173ffffffffffffffffffffffffffffffffffffffff021916908373ffffffffffffffffffffffffffffffffffffffff160217905550565b600061127b826001612a5290919063ffffffff16565b9050919050565b61128b33611265565b6112ca576040517f08c379a00000000000000000000000000000000000000000000000000000000081526004016112c1906135a5565b60405180910390fd5b80600260038111156112df576112de6138db565b5b60066000838152602001908152602001600020600a0160009054906101000a900460ff166003811115611315576113146138db565b5b14611355576040517f08c379a000000000000000000000000000000000000000000000000000000000815260040161134c90613c3c565b60405180910390fd5b600360066000848152602001908152602001600020600a0160006101000a81548160ff0219169083600381111561138f5761138e6138db565b5b02179055507f5dadecfe300742528ad6ba620e50f2dfeac7a76c907a59e2976cd7ab99d347aa826040516113c3919061396d565b60405180910390a15050565b60006113e5826003612a5290919063ffffffff16565b9050919050565b6000611402826002612a5290919063ffffffff16565b9050919050565b60008060009054906101000a900473ffffffffffffffffffffffffffffffffffffffff16905090565b60008060009054906101000a900473ffffffffffffffffffffffffffffffffffffffff1673ffffffffffffffffffffffffffffffffffffffff163373ffffffffffffffffffffffffffffffffffffffff1614905090565b611492336127b5565b6114d1576040517f08c379a00000000000000000000000000000000000000000000000000000000081526004016114c8906139fa565b60405180910390fd5b6005546007600084815260200190815260200160002060000181905550816007600084815260200190815260200160002060010181905550806007600084815260200190815260200160002060030181905550336007600084815260200190815260200160002060020160006101000a81548173ffffffffffffffffffffffffffffffffffffffff021916908373ffffffffffffffffffffffffffffffffffffffff16021790555060006007600084815260200190815260200160002060090160006101000a81548160ff021916908360068111156115b3576115b26138db565b5b021790555060016005546115c79190613939565b6005819055507f5bb87b8281c5b142229d7cec8aa7c498de30441c986b91d72e830499ccf7408e826040516115fc919061396d565b60405180910390a15050565b611611336113ec565b611650576040517f08c379a000000000000000000000000000000000000000000000000000000000815260040161164790613b64565b60405180910390fd5b8260016003811115611665576116646138db565b5b60066000838152602001908152602001600020600a0160009054906101000a900460ff16600381111561169b5761169a6138db565b5b146116db576040517f08c379a00000000000000000000000000000000000000000000000000000000081526004016116d290613ca8565b60405180910390fd5b828260066000878152602001908152602001600020600901918261170092919061380b565b50600260066000868152602001908152602001600020600a0160006101000a81548160ff0219169083600381111561173b5761173a6138db565b5b02179055507fc8ff0601d9bf422e842190947a20f16a133e53a10f186577dbdc55a1ba84a3ac8460405161176f919061396d565b60405180910390a150505050565b611786336113cf565b6117c5576040517f08c379a00000000000000000000000000000000000000000000000000000000081526004016117bc90613513565b60405180910390fd5b80600460068111156117da576117d96138db565b5b6007600083815260200190815260200160002060090160009054906101000a900460ff1660068111156118105761180f6138db565b5b14611850576040517f08c379a000000000000000000000000000000000000000000000000000000000815260040161184790613d14565b60405180910390fd5b336007600084815260200190815260200160002060070160006101000a81548173ffffffffffffffffffffffffffffffffffffffff021916908373ffffffffffffffffffffffffffffffffffffffff16021790555060056007600084815260200190815260200160002060090160006101000a81548160ff021916908360068111156118df576118de6138db565b5b02179055507feec09419d01dc721d7187b0fb597b00b17cdafa2cf4d82168323edfe5855506482604051611913919061396d565b60405180910390a15050565b611928336113ec565b611967576040517f08c379a000000000000000000000000000000000000000000000000000000000815260040161195e90613b64565b60405180910390fd5b826002600681111561197c5761197b6138db565b5b6007600083815260200190815260200160002060090160009054906101000a900460ff1660068111156119b2576119b16138db565b5b146119f2576040517f08c379a00000000000000000000000000000000000000000000000000000000081526004016119e990613d80565b60405180910390fd5b8282600760008781526020019081526020016000206008019182611a1792919061380b565b5060036007600086815260200190815260200160002060090160006101000a81548160ff02191690836006811115611a5257611a516138db565b5b02179055507f91212e5a9ab5b82d23965d73410de550dd286cf473f8759b66e9044c259b944c84604051611a86919061396d565b60405180910390a150505050565b611a9d336127b5565b611adc576040517f08c379a0000000000000000000000000000000000000000000000000000000008152600401611ad3906139fa565b60405180910390fd5b6007600085815260200190815260200160002060020160009054906101000a900473ffffffffffffffffffffffffffffffffffffffff168073ffffffffffffffffffffffffffffffffffffffff163373ffffffffffffffffffffffffffffffffffffffff1614611b81576040517f08c379a0000000000000000000000000000000000000000000000000000000008152600401611b7890613a66565b60405180910390fd5b8460016006811115611b9657611b956138db565b5b6007600083815260200190815260200160002060090160009054906101000a900460ff166006811115611bcc57611bcb6138db565b5b14611c0c576040517f08c379a0000000000000000000000000000000000000000000000000000000008152600401611c0390613dec565b60405180910390fd5b336007600088815260200190815260200160002060060160006101000a81548173ffffffffffffffffffffffffffffffffffffffff021916908373ffffffffffffffffffffffffffffffffffffffff1602179055508484600760008981526020019081526020016000206004019182611c8692919061380b565b5082600760008881526020019081526020016000206005018190555060026007600088815260200190815260200160002060090160006101000a81548160ff02191690836006811115611cdc57611cdb6138db565b5b02179055507fcd68d5707d683489ef8ad50f9add5fffc31ae1be269975780330348baf1b85a586604051611d10919061396d565b60405180910390a1505050505050565b600080600080606060008060006060806000600760008d8152602001908152602001600020600001549a50600760008d8152602001908152602001600020600101549950600760008d815260200190815260200160002060020160009054906101000a900473ffffffffffffffffffffffffffffffffffffffff169850600760008d8152602001908152602001600020600301549750600760008d81526020019081526020016000206004018054611dd79061362e565b80601f0160208091040260200160405190810160405280929190818152602001828054611e039061362e565b8015611e505780601f10611e2557610100808354040283529160200191611e50565b820191906000526020600020905b815481529060010190602001808311611e3357829003601f168201915b50505050509650600760008d8152602001908152602001600020600501549550600760008d815260200190815260200160002060060160009054906101000a900473ffffffffffffffffffffffffffffffffffffffff169450600760008d815260200190815260200160002060070160009054906101000a900473ffffffffffffffffffffffffffffffffffffffff169350600760008d81526020019081526020016000206008018054611f039061362e565b80601f0160208091040260200160405190810160405280929190818152602001828054611f2f9061362e565b8015611f7c5780601f10611f5157610100808354040283529160200191611f7c565b820191906000526020600020905b815481529060010190602001808311611f5f57829003601f168201915b50505050509250600860008d8152602001908152602001600020805480602002602001604051908101604052809291908181526020018280548015611fe057602002820191906000526020600020905b815481526020019060010190808311611fcc575b50505050509150600760008d815260200190815260200160002060090160009054906101000a900460ff16600681111561201d5761201c6138db565b5b905091939597999b90929496989a50565b612037336113cf565b612076576040517f08c379a000000000000000000000000000000000000000000000000000000000815260040161206d90613513565b60405180910390fd5b806005600681111561208b5761208a6138db565b5b6007600083815260200190815260200160002060090160009054906101000a900460ff1660068111156120c1576120c06138db565b5b14612101576040517f08c379a00000000000000000000000000000000000000000000000000000000081526004016120f890613e58565b60405180910390fd5b60076000838152602001908152602001600020600501548034101561215b576040517f08c379a000000000000000000000000000000000000000000000000000000000815260040161215290613ec4565b60405180910390fd5b82336007600086815260200190815260200160002060020160006101000a81548173ffffffffffffffffffffffffffffffffffffffff021916908373ffffffffffffffffffffffffffffffffffffffff160217905550336007600086815260200190815260200160002060070160006101000a81548173ffffffffffffffffffffffffffffffffffffffff021916908373ffffffffffffffffffffffffffffffffffffffff16021790555060066007600086815260200190815260200160002060090160006101000a81548160ff021916908360068111156122405761223f6138db565b5b02179055506000600760008681526020019081526020016000206005015490506007600086815260200190815260200160002060060160009054906101000a900473ffffffffffffffffffffffffffffffffffffffff1673ffffffffffffffffffffffffffffffffffffffff166108fc829081150290604051600060405180830381858888f193505050501580156122dc573d6000803e3d6000fd5b507f6234d877d185ebe1d8af498ea9cdf120897190a607b9428f5626406d957bb40e8560405161230c919061396d565b60405180910390a1506000600760008381526020019081526020016000206005015490506000813461233e9190613ee4565b90506007600084815260200190815260200160002060070160009054906101000a900473ffffffffffffffffffffffffffffffffffffffff1673ffffffffffffffffffffffffffffffffffffffff166108fc829081150290604051600060405180830381858888f193505050501580156123bc573d6000803e3d6000fd5b50505050505050565b6123ce336127b5565b61240d576040517f08c379a0000000000000000000000000000000000000000000000000000000008152600401612404906139fa565b60405180910390fd5b61241681612b19565b50565b612422336127b5565b612461576040517f08c379a0000000000000000000000000000000000000000000000000000000008152600401612458906139fa565b60405180910390fd5b6007600083815260200190815260200160002060020160009054906101000a900473ffffffffffffffffffffffffffffffffffffffff168073ffffffffffffffffffffffffffffffffffffffff163373ffffffffffffffffffffffffffffffffffffffff1614612506576040517f08c379a00000000000000000000000000000000000000000000000000000000081526004016124fd90613a66565b60405180910390fd5b336006600085815260200190815260200160002060020160006101000a81548173ffffffffffffffffffffffffffffffffffffffff021916908373ffffffffffffffffffffffffffffffffffffffff1602179055506008600084815260200190815260200160002082908060018154018082558091505060019003906000526020600020016000909190919091505560016007600085815260200190815260200160002060090160006101000a81548160ff021916908360068111156125cf576125ce6138db565b5b02179055507fb78f87cc0208aa53780a975cafd41bdb291799ab6e45b373d4e601af5333686c8383604051612605929190613f18565b60405180910390a1505050565b61261a611432565b61262357600080fd5b61262c81612b73565b50565b60608060006006600085815260200190815260200160002060080180546126559061362e565b80601f01602080910402602001604051908101604052809291908181526020018280546126819061362e565b80156126ce5780601f106126a3576101008083540402835291602001916126ce565b820191906000526020600020905b8154815290600101906020018083116126b157829003601f168201915b505050505092506006600085815260200190815260200160002060090180546126f69061362e565b80601f01602080910402602001604051908101604052809291908181526020018280546127229061362e565b801561276f5780601f106127445761010080835404028352916020019161276f565b820191906000526020600020905b81548152906001019060200180831161275257829003601f168201915b5050505050915060066000858152602001908152602001600020600a0160009054906101000a900460ff1660038111156127ac576127ab6138db565b5b90509193909250565b60006127cb826004612a5290919063ffffffff16565b9050919050565b6127db33612c69565b565b6127e633612cc3565b565b6127f28282612a52565b15612832576040517f08c379a000000000000000000000000000000000000000000000000000000000815260040161282990613f8d565b60405180910390fd5b60018260000160008373ffffffffffffffffffffffffffffffffffffffff1673ffffffffffffffffffffffffffffffffffffffff16815260200190815260200160002060006101000a81548160ff0219169083151502179055505050565b6128a48160036127e890919063ffffffff16565b8073ffffffffffffffffffffffffffffffffffffffff167f28b26e7a3d20aedbc5f8f2ebf7da671c0491723a2b78f47a097b0e46dee0714260405160405180910390a250565b6128fe8160026127e890919063ffffffff16565b8073ffffffffffffffffffffffffffffffffffffffff167f104cb9a9f6f722e54611e72d090b68cdaf67ecd247d1783a16b4bb7c9f45236560405160405180910390a250565b612958816002612d1d90919063ffffffff16565b8073ffffffffffffffffffffffffffffffffffffffff167fe76857ca9efe947ad3584ceafefd803d8386c1972d41081ad92be63b87b7679360405160405180910390a250565b6129b2816003612d1d90919063ffffffff16565b8073ffffffffffffffffffffffffffffffffffffffff167fe3f5ed5f263f1f01764a96edfc7d025f511ec5f7d180e8816908b78bcf74f09860405160405180910390a250565b612a0c8160016127e890919063ffffffff16565b8073ffffffffffffffffffffffffffffffffffffffff167f91bd74a5750e2b032dbc417f52481640b6b6fd8023f1b490d7155fbac0eace5360405160405180910390a250565b60008073ffffffffffffffffffffffffffffffffffffffff168273ffffffffffffffffffffffffffffffffffffffff1603612ac2576040517f08c379a0000000000000000000000000000000000000000000000000000000008152600401612ab99061401f565b60405180910390fd5b8260000160008373ffffffffffffffffffffffffffffffffffffffff1673ffffffffffffffffffffffffffffffffffffffff16815260200190815260200160002060009054906101000a900460ff16905092915050565b612b2d8160046127e890919063ffffffff16565b8073ffffffffffffffffffffffffffffffffffffffff167f2977383b0207d39ef14220620b6cf3e6c9b6e78592af90baeef6614ed2fcd2c660405160405180910390a250565b600073ffffffffffffffffffffffffffffffffffffffff168173ffffffffffffffffffffffffffffffffffffffff1603612bac57600080fd5b8073ffffffffffffffffffffffffffffffffffffffff1660008054906101000a900473ffffffffffffffffffffffffffffffffffffffff1673ffffffffffffffffffffffffffffffffffffffff167f5c486528ec3e3f0ea91181cff8116f02bfa350e03b8b6f12e00765adbb5af85c60405160405180910390a3806000806101000a81548173ffffffffffffffffffffffffffffffffffffffff021916908373ffffffffffffffffffffffffffffffffffffffff16021790555050565b612c7d816004612d1d90919063ffffffff16565b8073ffffffffffffffffffffffffffffffffffffffff167fb78e9906c5bae930ccf756a5214c9855b1782f0eb30f9566de2384f034af48f360405160405180910390a250565b612cd7816001612d1d90919063ffffffff16565b8073ffffffffffffffffffffffffffffffffffffffff167f3060a59d3d7b394091b189b4cc07a55e9f83ffa4d62f998ae07defa32714d5fa60405160405180910390a250565b612d278282612a52565b612d66576040517f08c379a0000000000000000000000000000000000000000000000000000000008152600401612d5d906140b1565b60405180910390fd5b60008260000160008373ffffffffffffffffffffffffffffffffffffffff1673ffffffffffffffffffffffffffffffffffffffff16815260200190815260200160002060006101000a81548160ff0219169083151502179055505050565b600080fd5b600080fd5b600073ffffffffffffffffffffffffffffffffffffffff82169050919050565b6000612df982612dce565b9050919050565b612e0981612dee565b8114612e1457600080fd5b50565b600081359050612e2681612e00565b92915050565b600060208284031215612e4257612e41612dc4565b5b6000612e5084828501612e17565b91505092915050565b6000819050919050565b612e6c81612e59565b8114612e7757600080fd5b50565b600081359050612e8981612e63565b92915050565b600080fd5b600080fd5b600080fd5b60008083601f840112612eb457612eb3612e8f565b5b8235905067ffffffffffffffff811115612ed157612ed0612e94565b5b602083019150836001820283011115612eed57612eec612e99565b5b9250929050565b60008060008060008060008060008060c08b8d031215612f1757612f16612dc4565b5b6000612f258d828e01612e7a565b9a50506020612f368d828e01612e17565b99505060408b013567ffffffffffffffff811115612f5757612f56612dc9565b5b612f638d828e01612e9e565b985098505060608b013567ffffffffffffffff811115612f8657612f85612dc9565b5b612f928d828e01612e9e565b965096505060808b013567ffffffffffffffff811115612fb557612fb4612dc9565b5b612fc18d828e01612e9e565b945094505060a08b013567ffffffffffffffff811115612fe457612fe3612dc9565b5b612ff08d828e01612e9e565b92509250509295989b9194979a5092959850565b60006020828403121561301a57613019612dc4565b5b600061302884828501612e7a565b91505092915050565b61303a81612e59565b82525050565b61304981612dee565b82525050565b600081519050919050565b600082825260208201905092915050565b60005b8381101561308957808201518184015260208101905061306e565b60008484015250505050565b6000601f19601f8301169050919050565b60006130b18261304f565b6130bb818561305a565b93506130cb81856020860161306b565b6130d481613095565b840191505092915050565b6000610100820190506130f5600083018b613031565b613102602083018a613031565b61310f6040830189613040565b61311c6060830188613040565b818103608083015261312e81876130a6565b905081810360a083015261314281866130a6565b905081810360c083015261315681856130a6565b905081810360e083015261316a81846130a6565b90509998505050505050505050565b60008060006040848603121561319257613191612dc4565b5b60006131a086828701612e7a565b935050602084013567ffffffffffffffff8111156131c1576131c0612dc9565b5b6131cd86828701612e9e565b92509250509250925092565b60008115159050919050565b6131ee816131d9565b82525050565b600060208201905061320960008301846131e5565b92915050565b60006020820190506132246000830184613040565b92915050565b6000806040838503121561324157613240612dc4565b5b600061324f85828601612e7a565b925050602061326085828601612e7a565b9150509250929050565b6000806000806060858703121561328457613283612dc4565b5b600061329287828801612e7a565b945050602085013567ffffffffffffffff8111156132b3576132b2612dc9565b5b6132bf87828801612e9e565b935093505060406132d287828801612e7a565b91505092959194509250565b600081519050919050565b600082825260208201905092915050565b6000819050602082019050919050565b61331381612e59565b82525050565b6000613325838361330a565b60208301905092915050565b6000602082019050919050565b6000613349826132de565b61335381856132e9565b935061335e836132fa565b8060005b8381101561338f5781516133768882613319565b975061338183613331565b925050600181019050613362565b5085935050505092915050565b6000610160820190506133b2600083018e613031565b6133bf602083018d613031565b6133cc604083018c613040565b6133d9606083018b613031565b81810360808301526133eb818a6130a6565b90506133fa60a0830189613031565b61340760c0830188613040565b61341460e0830187613040565b81810361010083015261342781866130a6565b905081810361012083015261343c818561333e565b905061344c610140830184613031565b9c9b505050505050505050505050565b6000606082019050818103600083015261347681866130a6565b9050818103602083015261348a81856130a6565b90506134996040830184613031565b949350505050565b7f436f6e73756d6572526f6c653a2063616c6c657220646f6573206e6f7420686160008201527f76652074686520436f6e73756d657220726f6c65000000000000000000000000602082015250565b60006134fd60348361305a565b9150613508826134a1565b604082019050919050565b6000602082019050818103600083015261352c816134f0565b9050919050565b7f54657874696c65526f6c653a2063616c6c657220646f6573206e6f742068617660008201527f65207468652054657874696c6520726f6c650000000000000000000000000000602082015250565b600061358f60328361305a565b915061359a82613533565b604082019050919050565b600060208201905081810360008301526135be81613582565b9050919050565b600082905092915050565b7f4e487b7100000000000000000000000000000000000000000000000000000000600052604160045260246000fd5b7f4e487b7100000000000000000000000000000000000000000000000000000000600052602260045260246000fd5b6000600282049050600182168061364657607f821691505b602082108103613659576136586135ff565b5b50919050565b60008190508160005260206000209050919050565b60006020601f8301049050919050565b600082821b905092915050565b6000600883026136c17fffffffffffffffffffffffffffffffffffffffffffffffffffffffffffffffff82613684565b6136cb8683613684565b95508019841693508086168417925050509392505050565b6000819050919050565b60006137086137036136fe84612e59565b6136e3565b612e59565b9050919050565b6000819050919050565b613722836136ed565b61373661372e8261370f565b848454613691565b825550505050565b600090565b61374b61373e565b613756818484613719565b505050565b5b8181101561377a5761376f600082613743565b60018101905061375c565b5050565b601f8211156137bf576137908161365f565b61379984613674565b810160208510156137a8578190505b6137bc6137b485613674565b83018261375b565b50505b505050565b600082821c905092915050565b60006137e2600019846008026137c4565b1980831691505092915050565b60006137fb83836137d1565b9150826002028217905092915050565b61381583836135c5565b67ffffffffffffffff81111561382e5761382d6135d0565b5b613838825461362e565b61384382828561377e565b6000601f8311600181146138725760008415613860578287013590505b61386a85826137ef565b8655506138d2565b601f1984166138808661365f565b60005b828110156138a857848901358255600182019150602085019450602081019050613883565b868310156138c557848901356138c1601f8916826137d1565b8355505b6001600288020188555050505b50505050505050565b7f4e487b7100000000000000000000000000000000000000000000000000000000600052602160045260246000fd5b7f4e487b7100000000000000000000000000000000000000000000000000000000600052601160045260246000fd5b600061394482612e59565b915061394f83612e59565b92508282019050808211156139675761396661390a565b5b92915050565b60006020820190506139826000830184613031565b92915050565b7f50726f6475636572526f6c653a2063616c6c657220646f6573206e6f7420686160008201527f7665207468652050726f647563657220726f6c65000000000000000000000000602082015250565b60006139e460348361305a565b91506139ef82613988565b604082019050919050565b60006020820190508181036000830152613a13816139d7565b9050919050565b7f76657269667943616c6c65723a20756e65787065637465642063616c6c657200600082015250565b6000613a50601f8361305a565b9150613a5b82613a1a565b602082019050919050565b60006020820190508181036000830152613a7f81613a43565b9050919050565b7f6e6f742043657274696669656400000000000000000000000000000000000000600082015250565b6000613abc600d8361305a565b9150613ac782613a86565b602082019050919050565b60006020820190508181036000830152613aeb81613aaf565b9050919050565b7f5175616c697479436865636b6572526f6c653a2063616c6c657220646f65732060008201527f6e6f74206861766520746865205175616c697479436865636b657220726f6c65602082015250565b6000613b4e60408361305a565b9150613b5982613af2565b604082019050919050565b60006020820190508181036000830152613b7d81613b41565b9050919050565b7f6e6f7420506c616e6e6564000000000000000000000000000000000000000000600082015250565b6000613bba600b8361305a565b9150613bc582613b84565b602082019050919050565b60006020820190508181036000830152613be981613bad565b9050919050565b7f6e6f742041756469746564000000000000000000000000000000000000000000600082015250565b6000613c26600b8361305a565b9150613c3182613bf0565b602082019050919050565b60006020820190508181036000830152613c5581613c19565b9050919050565b7f6e6f742041637175697265640000000000000000000000000000000000000000600082015250565b6000613c92600c8361305a565b9150613c9d82613c5c565b602082019050919050565b60006020820190508181036000830152613cc181613c85565b9050919050565b7f6e6f74205061636b656400000000000000000000000000000000000000000000600082015250565b6000613cfe600a8361305a565b9150613d0982613cc8565b602082019050919050565b60006020820190508181036000830152613d2d81613cf1565b9050919050565b7f6e6f742050726f64756365640000000000000000000000000000000000000000600082015250565b6000613d6a600c8361305a565b9150613d7582613d34565b602082019050919050565b60006020820190508181036000830152613d9981613d5d565b9050919050565b7f6e6f742043757474656400000000000000000000000000000000000000000000600082015250565b6000613dd6600a8361305a565b9150613de182613da0565b602082019050919050565b60006020820190508181036000830152613e0581613dc9565b9050919050565b7f6e6f7420466f7253616c65000000000000000000000000000000000000000000600082015250565b6000613e42600b8361305a565b9150613e4d82613e0c565b602082019050919050565b60006020820190508181036000830152613e7181613e35565b9050919050565b7f70616964456e6f75676800000000000000000000000000000000000000000000600082015250565b6000613eae600a8361305a565b9150613eb982613e78565b602082019050919050565b60006020820190508181036000830152613edd81613ea1565b9050919050565b6000613eef82612e59565b9150613efa83612e59565b9250828203905081811115613f1257613f1161390a565b5b92915050565b6000604082019050613f2d6000830185613031565b613f3a6020830184613031565b9392505050565b7f526f6c65733a206163636f756e7420616c72656164792068617320726f6c6500600082015250565b6000613f77601f8361305a565b9150613f8282613f41565b602082019050919050565b60006020820190508181036000830152613fa681613f6a565b9050919050565b7f526f6c65733a206163636f756e7420697320746865207a65726f20616464726560008201527f7373000000000000000000000000000000000000000000000000000000000000602082015250565b600061400960228361305a565b915061401482613fad565b604082019050919050565b6000602082019050818103600083015261403881613ffc565b9050919050565b7f526f6c65733a206163636f756e7420646f6573206e6f74206861766520726f6c60008201527f6500000000000000000000000000000000000000000000000000000000000000602082015250565b600061409b60218361305a565b91506140a68261403f565b604082019050919050565b600060208201905081810360008301526140ca8161408e565b905091905056fea26469706673582212209db66321d1511d867067f3b87f2f43059090fd4628f75aed9a823df2ab60fb8664736f6c63430008110033",
  "immutableReferences": {},
  "source": "// SPDX-License-Identifier: MIT\n\npragma solidity >=0.6.00;\n\n// Importing the necessary sol files\nimport \"../core/Ownable.sol\";\nimport \"../access/roles/ConsumerRole.sol\";\nimport \"../access/roles/TextileRole.sol\";\nimport \"../access/roles/ProducerRole.sol\";\nimport \"../access/roles/QualityCheckerRole.sol\";\n\n// Define a contract 'Supplychain'\ncontract SupplyChain is\n    Ownable,\n    TextileRole,\n    QualityCheckerRole,\n    ConsumerRole,\n    ProducerRole\n{\n    // Define a variable called 'sku' for Stock Keeping Unit (SKU)\n    uint256 sku_cnt;\n\n    // yarn_upc -> yarnItem\n    mapping(uint256 => YarnItem) yarnItems;\n    // fabric_upc -> fabricItems\n    mapping(uint256 => FabricItem) fabricItems;\n    // fabric_upc -> yarn_upc[]\n    mapping(uint256 => uint256[]) fabricYarns;\n\n    // Define enum 'State' with the following values:\n    enum YarnState {\n\t\tPlanned,\n\t\tAcquired,\n\t\tAudited,\n\t\tProcessed\n\t}\n    YarnState constant defaultYarnState = YarnState.Planned;\n\n    enum FabricState {\n        Created,\n        Cutted,\n        Produced,\n        Certified,\n        Packed,\n        ForSale,\n        Purchased\n    }\n    FabricState constant defaultFabricState = FabricState.Created;\n\n    // Define a struct 'YarnItem' with the following fields:\n    struct YarnItem {\n        uint256 sku; // Stock Keeping Unit (SKU)\n        uint256 upc; // Universal Product Code (UPC), generated by the Textile, goes on the package, can be verified by the Consumer\n        address ownerID; // Metamask-Ethereum address of the current owner as the product moves through stages\n        address originTextileID; // Metamask-Ethereum address of the Textile\n        string originTextileName; // Textile Name\n        string originTextileInformation; // Textile Information\n        string originTextileLatitude; // Textile Latitude\n        string originTextileLongitude; // Textile Longitude\n        string acquisitionNotes; // Acquisition Notes\n        string auditNotes; // Autit Notes\n        YarnState itemState; // Product State as represented in the enum above\n    }\n\n    // Define a struct 'FabricItem' with the following fields:\n    struct FabricItem {\n        uint256 sku; // Stock Keeping Unit (SKU)\n        uint256 upc; // Universal Product Code (UPC), generated by the Procuder, goes on the package, can be verified by the Consumer\n        address ownerID; // Metamask-Ethereum address of the current owner as the product moves through stages\n        uint256 productID; // Product ID potentially a combination of upc + sku\n        string productNotes; // Product Notes\n        uint256 productPrice; // Product Price\n        address producerID; // Metamask-Ethereum address of the Producer\n        address consumerID; // Metamask-Ethereum address of the Consumer\n        string certifyNotes; // Certify Notes\n        FabricState itemState; // Product State as represented in the enum above\n    }\n\n    // Define events of Yarns\n    event YarnPlanned(uint256 yarnUpc);\n    event YarnAcquired(uint256 yarnUpc);\n    event YarnAudited(uint256 yarnUpc);\n    event YarnProcessed(uint256 yarnUpc);\n\n    // Define events of Fabrics\n    event FabricCreated(uint256 fabricUpc);\n    event FabricCutted(uint256 fabricUpc, uint256 yarnUpc);\n    event FabricProduced(uint256 fabricUpc);\n    event FabricPacked(uint256 fabricUpc);\n    event FabricCertified(uint256 fabricUpc);\n    event FabricForSale(uint256 fabricUpc);\n    event FabricPurchased(uint256 fabricUpc);\n\n    // Define a modifer that verifies the Caller\n    modifier verifyCaller(address _address) {\n        require(msg.sender == _address, \"verifyCaller: unexpected caller\");\n        _;\n    }\n\n    // Define a modifier that checks if the paid amount is sufficient to cover the price\n    modifier paidEnough(uint256 _price) {\n        require(msg.value >= _price, \"paidEnough\");\n        _;\n    }\n\n    // Define a modifier that checks the price and refunds the remaining balance\n    modifier checkValue(uint256 _fabricUpc) {\n        _;\n        uint256 _price = fabricItems[_fabricUpc].productPrice;\n        uint256 amountToReturn = msg.value - _price;\n        payable(fabricItems[_fabricUpc].consumerID).transfer(amountToReturn);\n    }\n\n    // Define a modifier that checks if an yarnItem.state of a upc is Planned\n    modifier isPlanned(uint256 _yarnUpc) {\n        require(yarnItems[_yarnUpc].itemState == YarnState.Planned, \"not Planned\");\n        _;\n    }\n\n    // Define a modifier that checks if an yarnItem.state of a upc is Acquired\n    modifier isAcquired(uint256 _yarnUpc) {\n        require(yarnItems[_yarnUpc].itemState == YarnState.Acquired, \"not Acquired\");\n        _;\n    }\n\n    // Define a modifier that checks if an yarnItem.state of a upc is Audited\n    modifier isAudited(uint256 _yarnUpc) {\n        require(yarnItems[_yarnUpc].itemState == YarnState.Audited, \"not Audited\");\n        _;\n    }\n\n    // Define a modifier that checks if an yarnItem.state of a upc is Processed\n    modifier isProcessed(uint256 _yarnUpc) {\n        require(yarnItems[_yarnUpc].itemState == YarnState.Processed, \"not Processed\");\n        _;\n    }\n\n    // Define a modifier that checks if an fabricItem.state of a upc is Created\n    modifier isCreated(uint256 _fabricUpc) {\n        require(fabricItems[_fabricUpc].itemState == FabricState.Created, \"not Created\");\n        _;\n    }\n\n    // Define a modifier that checks if an fabricItem.state of a upc is Cutted\n    modifier isCutted(uint256 _fabricUpc) {\n        require(fabricItems[_fabricUpc].itemState == FabricState.Cutted, \"not Cutted\");\n        _;\n    }\n\n    // Define a modifier that checks if an fabricItem.state of a upc is Produced\n    modifier isProduced(uint256 _fabricUpc) {\n        require(fabricItems[_fabricUpc].itemState == FabricState.Produced, \"not Produced\");\n        _;\n    }\n\n    // Define a modifier that checks if an fabricItem.state of a upc is Packed\n    modifier isPacked(uint256 _fabricUpc) {\n        require(fabricItems[_fabricUpc].itemState == FabricState.Packed, \"not Packed\");\n        _;\n    }\n\n    // Define a modifier that checks if an fabricItem.state of a upc is Certified\n    modifier isCertified(uint256 _fabricUpc) {\n        require(fabricItems[_fabricUpc].itemState == FabricState.Certified, \"not Certified\");\n        _;\n    }\n\n    // Define a modifier that checks if an fabricItem.state of a upc is ForSale\n    modifier isForSale(uint256 _fabricUpc) {\n        require(fabricItems[_fabricUpc].itemState == FabricState.ForSale, \"not ForSale\");\n        _;\n    }\n\n    // Define a modifier that checks if an fabricItem.state of a upc is Purchased\n    modifier isPurchased(uint256 _fabricUpc) {\n        require(fabricItems[_fabricUpc].itemState == FabricState.Purchased, \"not Purchased\");\n        _;\n    }\n\n    // In the constructor\n    // set 'sku' to 1\n    // set 'upc' to 1\n    constructor() payable {\n        sku_cnt = 1;\n    }\n\n    // Transfer Eth to owner and terminate contract\n    function kill() public onlyOwner {\n        selfdestruct(payable(owner()));\n    }\n\n    // Define a function 'yarnPlannedItem' that allows a Textile to mark an item 'Planned'\n    function yarnPlannedItem(\n        uint256 _yarnUpc,\n        address _originTextileID,\n        string calldata _originTextileName,\n        string calldata _originTextileInformation,\n        string calldata _originTextileLatitude,\n        string calldata _originTextileLongitude\n    ) public onlyTextile {\n        // Add the new item as part of Acquisition\n        yarnItems[_yarnUpc].sku = sku_cnt;\n        yarnItems[_yarnUpc].upc = _yarnUpc;\n        yarnItems[_yarnUpc].ownerID = msg.sender;\n        yarnItems[_yarnUpc].originTextileID = _originTextileID;\n        yarnItems[_yarnUpc].originTextileName = _originTextileName;\n        yarnItems[_yarnUpc].originTextileInformation = _originTextileInformation;\n        yarnItems[_yarnUpc].originTextileLatitude = _originTextileLatitude;\n        yarnItems[_yarnUpc].originTextileLongitude = _originTextileLongitude;\n        // Update state\n        yarnItems[_yarnUpc].itemState = YarnState.Planned;\n        // Increment sku\n        sku_cnt = sku_cnt + 1;\n        // Emit the appropriate event\n        emit YarnPlanned(_yarnUpc);\n    }\n\n    // Define a function 'yarnAcquisitionItem' that allows a Textile to mark an item 'Acquired'\n    function yarnAcquisitionItem(uint256 _yarnUpc, string calldata _acquisitionNotes)\n        public\n        onlyTextile\n        isPlanned(_yarnUpc)\n    {\n        // Add the new item as part of Acquisition\n        yarnItems[_yarnUpc].ownerID = msg.sender;\n        yarnItems[_yarnUpc].acquisitionNotes = _acquisitionNotes;\n        // Update state\n        yarnItems[_yarnUpc].itemState = YarnState.Acquired;\n        // Emit the appropriate event\n        emit YarnAcquired(_yarnUpc);\n    }\n\n    // Define a function 'yarnAuditItem' that allows a QualityChecker to mark an item 'Audited'\n    function yarnAuditItem(uint256 _yarnUpc, string calldata _auditNotes)\n        public\n        onlyQualityChecker\n        isAcquired(_yarnUpc)\n    {\n        // Add the new item as part of Acquisition\n        yarnItems[_yarnUpc].auditNotes = _auditNotes;\n        // Update state\n        yarnItems[_yarnUpc].itemState = YarnState.Audited;\n        // Emit the appropriate event\n        emit YarnAudited(_yarnUpc);\n    }\n\n    // Define a function 'yarnProcessItem' that allows a Textile to mark an item 'Processed'\n    function yarnProcessItem(uint256 _yarnUpc)\n        public\n        onlyTextile\n        isAudited(_yarnUpc)\n        // verifyCaller(yarnItems[_yarnUpc].ownerID) // Call modifier to verify caller of this function\n    {\n        // Update the appropriate fields\n        yarnItems[_yarnUpc].itemState = YarnState.Processed;\n        // Emit the appropriate event\n        emit YarnProcessed(_yarnUpc);\n    }\n\n    function fabricCreateItem(\n        uint256 _yarnUpc,\n        uint256 _productID\n    ) public onlyProducer {\n        // Add the new item as part of Acquisition\n        fabricItems[_yarnUpc].sku = sku_cnt;\n        fabricItems[_yarnUpc].upc = _yarnUpc;\n        fabricItems[_yarnUpc].productID = _productID;\n        fabricItems[_yarnUpc].ownerID = msg.sender;\n\t\t// Update state\n        fabricItems[_yarnUpc].itemState = FabricState.Created;\n        // Increment sku\n        sku_cnt = sku_cnt + 1;\n        // Emit the appropriate event\n        emit FabricCreated(_yarnUpc);\n    }\n\n    function fabricCutItem(uint256 _fabricUpc, uint256 _yarnUpc)\n        public\n        onlyProducer\n\t\tverifyCaller(fabricItems[_fabricUpc].ownerID)\n    {\n\t\t// Take ownership of yarn\n\t\tyarnItems[_fabricUpc].ownerID = msg.sender;\n\t\t// Cut the '_fabricUpc' fabric with '_yarnUpc' yarn\n\t\tfabricYarns[_fabricUpc].push(_yarnUpc);\n\t\t// Update state\n        fabricItems[_fabricUpc].itemState = FabricState.Cutted;\n        // Emit the appropriate event\n        emit FabricCutted(_fabricUpc, _yarnUpc);\n    }\n\n\tfunction fabricProduceItem(uint256 _fabricUpc, string calldata _productNotes, uint256 _productPrice)\n        public\n        onlyProducer\n\t\tverifyCaller(fabricItems[_fabricUpc].ownerID)\n\t\tisCutted(_fabricUpc)\n    {\n        fabricItems[_fabricUpc].producerID = msg.sender;\n        fabricItems[_fabricUpc].productNotes = _productNotes;\n        fabricItems[_fabricUpc].productPrice = _productPrice;\n\t\t// Update state\n        fabricItems[_fabricUpc].itemState = FabricState.Produced;\n        // Emit the appropriate event\n        emit FabricProduced(_fabricUpc);\n    }\n\n\tfunction fabricCertifyItem(uint256 _fabricUpc, string calldata _certifyNotes)\n        public\n        onlyQualityChecker\n\t\tisProduced(_fabricUpc)\n    {\n\t\tfabricItems[_fabricUpc].certifyNotes = _certifyNotes;\n\t\t// Update state\n        fabricItems[_fabricUpc].itemState = FabricState.Certified;\n        // Emit the appropriate event\n        emit FabricCertified(_fabricUpc);\n    }\n\n\tfunction fabricPackItem(uint256 _fabricUpc)\n        public\n        onlyProducer\n\t\tverifyCaller(yarnItems[_fabricUpc].ownerID)\n\t\tisCertified(_fabricUpc)\n    {\n\t\t// Update state\n        fabricItems[_fabricUpc].itemState = FabricState.Packed;\n        // Emit the appropriate event\n        emit FabricPacked(_fabricUpc);\n    }\n\n\tfunction fabricSellItem(uint256 _fabricUpc)\n        public\n        onlyConsumer\n\t\tisPacked(_fabricUpc)\n    {\n        fabricItems[_fabricUpc].consumerID = msg.sender;\n\t\t// Update state\n        fabricItems[_fabricUpc].itemState = FabricState.ForSale;\n        // Emit the appropriate event\n        emit FabricForSale(_fabricUpc);\n    }\n\n\tfunction fabricBuyItem(uint256 _fabricUpc)\n        public\n\t\tpayable\n        onlyConsumer\n\t\tisForSale(_fabricUpc)\n\t\tpaidEnough(fabricItems[_fabricUpc].productPrice)\n\t\tcheckValue(_fabricUpc)\n    {\n\t\tfabricItems[_fabricUpc].ownerID = msg.sender;\n        fabricItems[_fabricUpc].consumerID = msg.sender;\n\t\t// Update state\n        fabricItems[_fabricUpc].itemState = FabricState.Purchased;\n        // Transfer money to producer\n        uint256 price = fabricItems[_fabricUpc].productPrice;\n        payable(fabricItems[_fabricUpc].producerID).transfer(price);\n        // Emit the appropriate event\n\t    emit FabricPurchased(_fabricUpc);\n    }\n\n    // Functions to fetch data\n    function fetchFabricItemBufferOne(uint256 _fabricUpc)\n        external\n        view\n        returns (\n\t\t\tuint256 sku,\n\t\t\tuint256 upc,\n\t\t\taddress ownerID,\n\t\t\tuint256 productID,\n\t\t\tstring memory productNotes,\n\t\t\tuint256 productPrice,\n\t\t\taddress producerID,\n\t\t\taddress consumerID,\n\t\t\tstring memory certifyNotes,\n\t\t\tuint256[] memory yarns,\n\t\t\tuint256 itemState\n        )\n    {\n\t\t\tsku\t\t\t= fabricItems[_fabricUpc].sku;\n\t\t\tupc\t\t\t= fabricItems[_fabricUpc].upc;\n\t\t\townerID\t\t= fabricItems[_fabricUpc].ownerID;\n\t\t\tproductID\t\t= fabricItems[_fabricUpc].productID;\n\t\t\tproductNotes\t= fabricItems[_fabricUpc].productNotes;\n\t\t\tproductPrice\t= fabricItems[_fabricUpc].productPrice;\n\t\t\tproducerID\t\t= fabricItems[_fabricUpc].producerID;\n\t\t\tconsumerID\t\t= fabricItems[_fabricUpc].consumerID;\n\t\t\tcertifyNotes\t= fabricItems[_fabricUpc].certifyNotes;\n\t\t\tyarns\t\t\t= fabricYarns[_fabricUpc];\n\t\t\titemState\t\t= uint256(fabricItems[_fabricUpc].itemState);\n        return (\n\t\t\tsku,\n\t\t\tupc,\n\t\t\townerID,\n\t\t\tproductID,\n\t\t\tproductNotes,\n\t\t\tproductPrice,\n\t\t\tproducerID,\n\t\t\tconsumerID,\n\t\t\tcertifyNotes,\n\t\t\tyarns,\n\t\t\titemState\n        );\n    }\n\n    // Functions to fetch data\n    function fetchYarnItemBufferOne(uint256 _yarnUpc)\n        public\n        view\n        returns (\n\t\t\tuint256 sku,\n\t\t\tuint256 upc,\n\t\t\taddress ownerID,\n\t\t\taddress originTextileID,\n\t\t\tstring memory originTextileName,\n\t\t\tstring memory originTextileInformation,\n\t\t\tstring memory originTextileLatitude,\n\t\t\tstring memory originTextileLongitude\n        )\n    {\n\t\t\tsku\t\t\t= yarnItems[_yarnUpc].sku;\n\t\t\tupc\t\t\t= yarnItems[_yarnUpc].upc;\n\t\t\townerID\t\t\t= yarnItems[_yarnUpc].ownerID;\n\t\t\toriginTextileID\t= yarnItems[_yarnUpc].originTextileID;\n\t\t\toriginTextileName\t= yarnItems[_yarnUpc].originTextileName;\n\t\t\toriginTextileInformation\t= yarnItems[_yarnUpc].originTextileInformation;\n\t\t\toriginTextileLatitude\t\t= yarnItems[_yarnUpc].originTextileLatitude;\n\t\t\toriginTextileLongitude\t\t= yarnItems[_yarnUpc].originTextileLongitude;\n        return (\n\t\t\tsku,\n\t\t\tupc,\n\t\t\townerID,\n\t\t\toriginTextileID,\n\t\t\toriginTextileName,\n\t\t\toriginTextileInformation,\n\t\t\toriginTextileLatitude,\n\t\t\toriginTextileLongitude\n        );\n    }\n\n\n    // Functions to fetch data\n    function fetchYarnItemBufferTwo(uint256 _yarnUpc)\n        public\n        view\n        returns (\n\t\t\tstring memory acquisitionNotes,\n\t\t\tstring memory auditNotes,\n\t\t\tuint256 itemState\n        )\n    {\n\t\t\tacquisitionNotes\t= yarnItems[_yarnUpc].acquisitionNotes;\n\t\t\tauditNotes\t\t= yarnItems[_yarnUpc].auditNotes;\n\t\t\titemState \t\t= uint256(yarnItems[_yarnUpc].itemState);\n        return (\n\t\t\tacquisitionNotes,\n\t\t\tauditNotes,\n\t\t\titemState\n        );\n    }\n\n}",
  "sourcePath": "D:\\Study in Sask Polytechnic_17Jan22\\2nd Semester\\CCMP606_Integrated Services Using Smart Contracts\\DAPP_SUPPLY_CHAIN\\contracts\\base\\SupplyChain.sol",
  "compiler": {
    "name": "solc",
    "version": "0.8.17+commit.8df45f5f.Emscripten.clang"
  },
  "schemaVersion": "3.4.11",
  "updatedAt": "2022-12-12T00:10:03.171Z",
  "devdoc": {
    "kind": "dev",
    "methods": {},
    "version": 1
  },
  "userdoc": {
    "kind": "user",
    "methods": {
      "isOwner()": {
        "notice": "Check if the calling address is the owner of the contract"
      },
      "owner()": {
        "notice": "Look up the address of the owner"
      },
      "renounceOwnership()": {
        "notice": "Define a function to renounce ownerhip"
      },
      "transferOwnership(address)": {
        "notice": "Define a public function to transfer ownership"
      }
    },
    "version": 1
  }
}